:0300000002018C6E
:0C018C00787FE4F6D8FD7581420201D3B3
:100763007580FFC2B5D2B6D2B4AF80C2B4EF20E772
:01077300F68F
:010774002262
:10077500AE07120763C2B4C2B5C2B68E80D2B4C288
:02078500B4229C
:10078700AE07120763C2B4D2B5C2B68E80D2B4C266
:02079700B4228A
:1006EE001207991207991207997F381207757F081A
:1006FE001207757F011207757F061207757F0C02B0
:02070E0007756D
:10071000E4FEED146007047008AE078004EF244087
:08072000FEEE4480FF020775A4
:1006C6008B3A8A3B893C120710AB3AAA3BA93C12EB
:1006D60000E86013053CE53C7002053B14F9120086
:0806E600E8FF12078780E22201
:0A07B400AC03120710AF0402078720
:050003007F01020775FA
:050799007F3812077516
:08079E007F137E82DEFEDFFA0C
:0107A6002230
:100218006B657931006B657932006B657933006BFA
:10022800657934004E6F6E650075736572200062E3
:10023800696E676F2121005B005D0074696D653A26
:10024800004D4F444531002D2D54696D65204F7583
:10025800742D2D004D4F44453200596F7572204161
:1002680072652057726F6E672100596F7572204151
:100278007265205269676874210054696D6520535E
:100288006574004669676874202054696D6500418B
:0B0298006E737765722054696D65007D
:1005DA00052F30302E30300B083031323334353677
:1005EA003738390010140000000000000000000035
:1005FA00000000000000022A000002340000022865
:10060A000001022C0000012E0102260BB802240B65
:01061A00B827
:0604B000E4FDFC7F05FEE7
:1004B6008E368F378C388D391207287C007D0A12CC
:1004C600010174082DF8E6F5331207287C007D0A31
:1004D6001201017C007D0A12010174082DF8E6F56F
:1004E600321207287C007D641201017C007D0A120D
:1004F600010174082DF8E6F5301207287C037DE823
:1005060012010174082FF8E6F52FAF37AD397B00DD
:070516007A00792F0206C6EE
:10051D008E3D8F3E8C3F8D401206208E2A8F2BE50F
:10052D002A7040E52B24FE601614601F14602824E9
:10053D00037030AF3EAD407BFF7A027918802EAF4D
:10054D003EAD407BFF7A02791D8022AF3EAD407BF0
:10055D00FF7A0279228016AF3EAD407BFF7A027999
:10056D0027800AAF3EAD407BFF7A02792C1206C67A
:01057D00225B
:100694008E368F378C388D397BFF7A02793112068A
:1006A400C6E5372405FFAD3974082535F8E6FB1295
:1006B40007B4E5372407FFAD397BFF7A02793702A7
:0206C40006C668
:1003B400E4F536F537F538F538AF3605367BFF7A90
:1003C40002793FAD371206C6E53825E02414F8E675
:1003D400FE08E6FF7C007D0A12010174082FF8E68E
:1003E400FBAF360536AD371207B4E53825E02414E3
:1003F400F8E6FE08E6FF7C007D0A12010174082D70
:10040400F8E6FBAF360536AD371207B4AF3605361E
:100414007BFF7A027941AD371206C6E536C39410E4
:100424004005E4F53605370538E538C394084089B6
:0104340022A5
:10057E00120620EF64044E7052120620EF4E70F9F0
:10058E000529E52970020528D39404E52864809492
:10059E008040067528007529011200031207C3E575
:1005AE00296401452870028016E5296402452870E9
:1005BE0006AF25AE24800CE529640445287007AFEC
:0C05CE0027AE261207BEE4F52CF52D2206
:10032D007BFF7A027943E4FDFF1206C61204B07B0F
:10033D00FF7A027949E4FD7F0B1206C6E52B6401B5
:10034D00452A7009120008752C00752D01E52B64E6
:10035D0002452A70081207C3E4F52CF52DAF2DAE1A
:10036D002C1204358F13E5136024AF2DAE2C12041F
:10037D0035EF4E70F5753400851335E4F52CF52DFC
:10038D001207C37D017C007F017E001206941207C7
:10039D0028EF4E7011F52CF52D7BFF7A02794F7DEC
:0703AD00017F021206C622C7
:1002A3007BFF7A027943E4FDFF1206C61204B07B9A
:1002B300FF7A02795CE4FD7F0B1206C6E52B64012D
:1002C300452A7003120008E52B6402452A701712B1
:1002D3000620EF4E70F91207C37BFF7A0279627D25
:1002E30001E4FF1206C6E52B6403452A70271206B4
:1002F30020EF4E70F91207C3E53525E02412F80804
:10030300740526F618E436F67BFF7A0279727D01CE
:10031300E4FF1206C6120728EF4E700D7BFF7A0228
:0A032300794F7D017F021206C62209
:10000E007BFF7A027982E4FD7F031206C6E52EB4E9
:10001E00010FAF27AE261207BE7BFF7A02798B80C7
:10002E000DAF25AE241207BE7BFF7A0279977D01B4
:10003E00E4FF1206C6E52B6403452A701012062053
:10004E00EF4E70F9E52EF404F52E0200DDE52B647B
:10005E0001452A702A120620EF4E70F9E52EB401E2
:10006E000F74642527F527E43526F526AF27805B28
:10007E0074642525F525E43524F524AF25804CE55B
:10008E002B6402452A7048120620EF4E70F9E52EB9
:10009E00B4011DD3E5279400E52664809480402F9B
:1000AE00749C2527F52774FF3526F526AF27801B70
:1000BE00D3E5259400E524648094804012749C2539
:1000CE0025F52574FF3524F524AF25FE1207BE7DD8
:0A00DE00017C007F0B7E000204B6D7
:10065C001206EE12073D12057E1206208E2A8F2BF3
:10066C00E52870F2E52924FE600F14601114601364
:10067C00240370E212032D80DD1202A380D8120332
:08068C00B480D312000E80CEF1
:04061B0002410BB8D5
:10073D005389F0438901758CD8758AF0D2A9D2AF4F
:03074D00C28C2239
:03000B0002075099
:10075000C0E0758CD8758AF0E542154270021541EB
:03076000D0E032B4
:10072800C3E541648094805007E4F541F542C28CEA
:05073800AE41AF4222BA
:0507BE008E418F422274
:03000800D28C2275
:0307C300C28C22C3
:1006200020B00B1207A720B0057E007F012220B169
:100630000B1207A720B1057E007F022220B20B1209
:1006400007A720B2057E007F032220B30B1207A765
:0C06500020B3057E007F0422E4FEFF22A0
:10043500EF4E7003FEFF2220900B1207A7209005B8
:100445007E007F012220910B1207A72091057E00D7
:100455007F022220920B1207A72092057E007F03C0
:100465002220930B1207A72093057E007F042220EC
:10047500940B1207A72094057E007F052220950B7B
:100485001207A72095057E007F062220960B1207EE
:10049500A72096057E007F072220970B1207A7202D
:0B04A50097057E007F0822E4FEFF2286
:0C07A7007F057E047DF8DDFEDEFADFF643
:0107B3002223
:1001980002065CE493A3F8E493A34003F68001F21B
:1001A80008DFF48029E493A3F85407240CC8C33368
:1001B800C4540F4420C8834004F456800146F6DF37
:1001C800E4800B01020408102040809005DAE47EE8
:1001D800019360BCA3FF543F30E509541FFEE4932C
:1001E800A360010ECF54C025E060A840B8E493A3F3
:1001F800FAE493A3F8E493A3C8C582C8CAC583CA1E
:10020800F0A3C8C582C8CAC583CADFE9DEE780BED5
:01061F0000DA
:1000E800BB010689828A83E0225002E722BBFE0216
:0900F800E32289828A83E4932249
:10010100C2D5EC30E709B2D5E4C39DFDE49CFCEE19
:1001110030E715B2D5E4C39FFFE49EFE120137C359
:10012100E49DFDE49CFC800312013730D507C3E454
:060131009FFFE49EFE2288
:10013700BC000BBE0029EF8DF084FFADF022E4CCAC
:10014700F875F008EF2FFFEE33FEEC33FCEE9DEC75
:10015700984005FCEE9DFE0FD5F0E9E4CEFD22EDBB
:10016700F8F5F0EE8420D21CFEADF075F008EF2F05
:10017700FFED33FD4007985006D5F0F222C398FDF6
:050187000FD5F0EA2293
:00000001FF
