:030000000205B145
:0C05B100787FE4F6D8FD75814E0205F855
:100B2D007580FFC2B5D2B6D2B4AF80C2B4EF20E7A4
:010B3D00F6C1
:010B3E002294
:100B3F00AE07120B2DC2B4C2B5C2B68E80D2B4C2EC
:020B4F00B422CE
:100B5100AE07120B2DC2B4D2B5C2B68E80D2B4C2CA
:020B6100B422BC
:100AA400120B63120B63120B637F38120B3F7F0828
:100AB400120B3F7F01120B3F7F06120B3F7F0C028C
:020AC4000B3FE6
:100AC600E4FEED146007047008AE078004EF2440CE
:080AD600FEEE4480FF020B3F1D
:100A7C008B448A458946120AC6AB44AA45A946123C
:100A8C00017360130546E5467002054514F9120121
:080A9C0073FF120B5180E222EE
:0A0B7100AC03120AC6AF04020B51D8
:050003007F01020B3F2C
:050B63007F38120B3F7A
:080B68007F137E82DEFEDFFA3E
:010B70002262
:10044E006B657931006B657932006B657933006BC2
:10045E00657934004E6F6E650075736572200062AB
:10046E00696E676F2121005B005D0074696D653AEE
:10047E00004D4F444531002D2D54696D65204F754B
:10048E00742D2D004D4F44453200596F7572204129
:10049E0072652057726F6E672100596F7572204119
:1004AE007265205269676874210054696D65205326
:1004BE006574004669676874202054696D65004153
:1004CE006E737765722054696D650053636F726544
:1004DE002053657400696E697469616C3A2000720C
:1004EE00696768743A200077726F6E673A20006908
:1004FE006C6C6567616C3A2000696C6C6567616C49
:01050E0000EC
:1008D900053730302E30300B08303132333435366D
:1008E900373839001014000A000A000A000A000A01
:1008F900000A000A000A02300000023E0000022A33
:10090900000102320000013401012F01012C000213
:10091900280BB802260BB8023C000A022400050283
:070929002D00000235000360
:06073900E4FDFC7F05FE5B
:10073F008E408F418C428D43120ADE7C007D0A125F
:10074F00018C74082DF8E6F53B120ADE7C007D0A59
:10075F0012018C7C007D0A12018C74082DF8E6F5CD
:10076F003A120ADE7C007D6412018C7C007D0A1235
:10077F00018C74082DF8E6F538120ADE7C037DE84B
:10078F0012018C74082FF8E6F537AF41AD437B00AB
:07079F007A007937020A7CA1
:100878008E478F488C498D4A1209DA8E308F31E5C0
:10088800307040E53124FE601614601F146028247F
:10089800037030AF48AD4A7BFF7A04794E802EAFA3
:1008A80048AD4A7BFF7A0479538022AF48AD4A7B32
:1008B800FF7A0479588016AF48AD4A7BFF7A0479ED
:1008C8005D800AAF48AD4A7BFF7A047962120A7CE0
:0108D80022FD
:100A4A008E408F418C428D437BFF7A047967120A6C
:100A5A007CE5412405FFAD437408253FF8E6FB1207
:100A6A000B71E5412407FFAD437BFF7A04796D02E0
:020A7A000A7CF4
:10063D00E4F540F541F542F542AF4005407BFF7AC8
:10064D00047975AD41120A7CE54225E02414F8E6E3
:10065D00FE08E6FF7C007D0A12018C74082FF8E677
:10066D00FBAF400540AD41120B71E54225E024146E
:10067D00F8E6FE08E6FF7C007D0A12018C74082D59
:10068D00F8E6FBAF400540AD41120B71AF400540A0
:10069D007BFF7A047977AD41120A7CE540C3941053
:1006AD004005E4F54005410542E542C39408408903
:0106BD00221A
:100939001209DAEF64044E70541209DAEF4E70F9B5
:10094900052BE52B7002052AD39405E52A648094CA
:10095900804006752A00752B01120003120B80E5F1
:100969002B6401452A70028016E52B6402452A7022
:1009790006AF27AE26800CE52B6404452A7007AF25
:0E09890029AE28120B7BE4F532F533F52C2253
:10050F007BFF7A047979E4FDFF120A7C1207397BAD
:10051F00FF7A04797FE4FD7F0B120A7CAF2C120760
:10052F00A6E53164014530700C1200087532007574
:10053F003301752C01E53164024530700A120B80CE
:10054F00E4F532F533F52CE53164034530700312D1
:10055F000003AF33AE321206BE8F13E5136027AF21
:10056F0033AE321206BEEF4E70F5120B83753E009E
:10057F0085133FE4F532F533120B807D017C007F4C
:10058F00017E00120A4A120ADEEF4E7014F532F5A0
:10059F00337BFF7A0479857D017F02120A7C120B6F
:0205AF008322A5
:100389007BFF7A047979E4FDFF120A7C1207397B35
:10039900FF7A047992E4FD7F0B120A7CE53164014E
:1003A90045307003120008E531640245307031129E
:1003B90009DAEF4E70F9120B80E53F25E02412F8B7
:1003C900C000E6FE08E6C3952EFFEE952DD000F697
:1003D90008A6077BFF7A0479987D01E4FF120A7C5D
:1003E900E53164034530702B1209DAEF4E70F912CA
:1003F9000B80E53F25E02412F808E52526F618E5E7
:100409002436F67BFF7A0479A87D01E4FF120A7C81
:10041900120B83120ADEEF4E702A7BFF7A0479856C
:100429007D017F02120A7CE53F25E02412F8C00015
:10043900E6FE08E6C3952EFFEE952DD000F608A638
:0504490007120B8322E5
:1002AF007BFF7A0479B8E4FD7F03120A7CE534B44E
:1002BF00010FAF29AE28120B7B7BFF7A0479C18027
:1002CF000DAF27AE26120B7B7BFF7A0479CD7D0114
:1002DF00E4FF120A7CE5316403453070101209DA2D
:1002EF00EF4E70F9E534F404F53402037EE5316422
:1002FF00014530702A1209DAEF4E70F9E534B40176
:10030F000F74642529F529E43528F528AF29805B7A
:10031F0074642527F527E43526F526AF27804CE5AD
:10032F00316402453070481209DAEF4E70F9E53446
:10033F00B4011DD3E5299400E52864809480402FF3
:10034F00749C2529F52974FF3528F528AF29801BC2
:10035F00D3E5279400E526648094804012749C2591
:10036F0027F52774FF3526F526AF27FE120B7B7D69
:0A037F00017C007F0B7E0002073FA7
:10001E007BFF7A0479D9E4FD7F03120A7CE5316413
:10002E0003453070131209DAEF4E70F9052FE52FE4
:10003E00D394044003752F01E52F24FE607A1470CB
:10004E00030200F814700302012C24036003020162
:10005E00727BFF7A0479E37D01E4FF120A7C7A0059
:10006E00793C120813EF4E6030853C14853D1585A2
:10007E003C16853D17853C18853D19853C1A853DF6
:10008E001B853C1C853D1D853C1E853D1F853C20EA
:10009E00853D21853C22853D23AE3CAF3D7C007DD8
:1000AE000A12018C74082FF8E6FB7D017F0A120BF1
:1000BE0071AE3CAF3D02015E7BFF7A0479ED7D01AE
:1000CE00E4FF120A7C7A007924120813AE24AF25BD
:1000DE007C007D0A12018C74082FF8E6FB7D017FEF
:1000EE000A120B71AE24AF2580667BFF7A0479F578
:1000FE007D01E4FF120A7C7B007A00792D1208152F
:10010E00AE2DAF2E7C007D0A12018C74082FF8E6FE
:10011E00FB7D017F0A120B71AE2DAF2E80327BFF5D
:10012E007A0479FD7D01E4FF120A7C7B007A007966
:10013E0035120815AE35AF367C007D0A12018C746F
:10014E00082FF8E6FB7D017F0A120B71AE35AF3634
:10015E007C007D0A12018C74082DF8E6FB7D017F70
:05016E000B120B7122D1
:060813007B007D017C006A
:100819008B408A4189428C438D44E53164014530DE
:1008290070171209DAEF4E70F9AB40AA41A942E5F7
:10083900438544F01201ED802DE5316402453070A5
:100849002A1209DAEF4E70F9AB40AA41A942120106
:10085900C2FFAEF0C3EE94004011EF9544FFEE9550
:0F086900438FF01202257E007F0122E4FEFF2262
:1007A6008F40E54070667F01FE1206BE8F13E5138B
:1007B600605A7F017E001206BEEF4E70F57BFF7A0F
:1007C6000479677D017F01120A7C74082513F8E617
:1007D600FB7D017F06120B717BFF7A0579077D0190
:1007E6007F08120A7C120B80E4F532F533F54012CD
:1007F6000B83E51325E02412F8C000E6FE08E6C3E5
:0D0806009536FFEE9535D000F608A60722C6
:10099700120AA4120AF4120B1A1209391209DA8E72
:1009A700308F31E52A70F2E52B24FE6012146014B3
:1009B700146016146018240470DF12050F80DA1211
:1009C700038980D512063D80D01202AF80CB12007A
:0309D7001E80C6B9
:08093000024B0BB8024D00322E
:100AF4005389F0438901758CD8758AF0D2A9D2AF95
:030B0400C28C227E
:03000B00020B07DE
:100B0700C0E0758CD8758AF0E54C154C7002154B12
:030B1700D0E032F9
:100B1A0053890F438910758DD8758BF0D2ABD2AF3C
:030B2A00C28E2256
:03001B00020A16C0
:100A1600C0E0C0D075D000C006758DD8758BF0C209
:100A2600A3E54E154EAE4D7002154DC3EE6480948F
:100A360080500AD2A3754D00754E32C28ED006D0B4
:040A4600D0D0E032FA
:100ADE00C3E54B64809480500874FFF54BF54CC20F
:060AEE008CAE4BAF4C2260
:050B7B008E4B8F4C229F
:03000800D28C2275
:030B8000C28C2202
:030B8300D28E22ED
:030B8600C28E22FA
:1009DA0020B00B12000E20B0057E007F012220B14C
:1009EA000B12000E20B1057E007F022220B20B12EC
:1009FA00000E20B2057E007F032220B30B12000EE8
:0C0A0A0020B3057E007F0422E4FEFF22E2
:1006BE00EF4E7003FEFF2220900B12000E209005CD
:1006CE007E007F012220910B12000E2091057E00EC
:1006DE007F022220920B12000E2092057E007F03D5
:1006EE002220930B12000E2093057E007F04222001
:1006FE00940B12000E2094057E007F052220950B90
:10070E0012000E2095057E007F062220960B120009
:10071E000E2096057E007F072220970B12000E20DA
:0B072E0097057E007F0822E4FEFF22FA
:0C000E007F057E047DF8DDFEDEFADFF6E3
:01001A0022C3
:1005BD00020997E493A3F8E493A34003F68001F2B4
:1005CD0008DFF48029E493A3F85407240CC8C3333F
:1005DD00C4540F4420C8834004F456800146F6DF0E
:1005ED00E4800B01020408102040809008D9E47EBD
:1005FD00019360BCA3FF543F30E509541FFEE49303
:10060D00A360010ECF54C025E060A840B8E493A3C9
:10061D00FAE493A3F8E493A3C8C582C8CAC583CAF4
:10062D00F0A3C8C582C8CAC583CADFE9DEE780BEAC
:0109380000BE
:10017300BB010689828A83E0225002E722BBFE028A
:09018300E32289828A83E49322BD
:10018C00C2D5EC30E709B2D5E4C39DFDE49CFCEE8E
:10019C0030E715B2D5E4C39FFFE49EFE120244C3C0
:1001AC00E49DFDE49CFC800312024430D507C3E4BB
:0601BC009FFFE49EFE22FD
:1001C200BB010A89828A83E0F5F0A3E02250068708
:1001D200F009E71922BBFE07E3F5F009E3192289CA
:0B01E200828A83E493F5F074019322FD
:1001ED00BB010789828A83020299500B09C5F0274A
:1001FD00F7C5F01937F722BBFE0D09F8E325F0F32B
:10020D00C5F019E338F322F889828A8374019325A6
:08021D00F0C5F0F8E49338226B
:10022500BB010A89828A83F0E5F0A3F0225006F724
:0F02350009A7F01922BBFE06F3E5F009F3192221
:10024400BC000BBE0029EF8DF084FFADF022E4CC9E
:10025400F875F008EF2FFFEE33FEEC33FCEE9DEC67
:10026400984005FCEE9DFE0FD5F0E9E4CEFD22EDAD
:10027400F8F5F0EE8420D21CFEADF075F008EF2FF7
:10028400FFED33FD4007985006D5F0F222C398FDE8
:050294000FD5F0EA2285
:10029900C5F0F8A3E028F0C5F0F8E58215827002F0
:0602A9001583E038F0228D
:00000001FF
