:030000000201AA50
:0C01AA00787FE4F6D8FD75812F0201F18A
:10033600413A3030423A3030433A3030443A303045
:1003460000453A3030463A3030473A3030483A3055
:08035600300032303A30300073
:1003800002080000020A00000B20303132333435FD
:0D0390003637383900021C0000021E001E26
:10039E00758901758CF8758A30758DF8758B30D22C
:0903AE00A9D2ABD2AFE4F5802224
:1003B7007580FFC2A6D2A5D2A7AF80C2A7EF20E75C
:0103C700F63F
:0103C8002212
:1003C900AE071203B7C2A7C2A6C2A58E80D2A7C222
:0203D900A72259
:10029400AE1EAF1F7C007D0A12011F8E088F09AEAF
:1002A4001EAF1F7C007D0A12011F8C0A8D0BE4FD1A
:1002B400FF12000374202509F8E6FF1202CE7F0125
:0A02C4001200037420250BF8E6FF7A
:1002CE00AE071203B7C2A7D2A6C2A58E80D2A7C20E
:0202DE00A72255
:10035E001203DB1203DB1203DB7F381203C97F08A3
:10036E001203C97F011203C97F061203C97F0C0253
:02037E0003C9B1
:10000300E4FEED146007047008AE078004EF24409B
:08001300FEEE4480FF0203C968
:0502E0007BFFE4FDFFBF
:1002E5008B2D8A2E892F120003AB2DAA2EA92F1232
:1002F50001066013052FE52F7002052E14F9120172
:0803050006FF1202CE80E22285
:0503DB007F381203C988
:0803E0007F137E82DEFEDFFACE
:0103E80022F2
:10001E0012035E7A0379361202E07BFF7A03794788
:10002E000DE4FF1202E5750E00750F14E4F52BF5C5
:10003E002CE52C25E0240CF8E6FA08E6FB7C007D86
:10004E000AFFAE0212011F8E088F097C007D0AAFD7
:10005E0003AE0212011F8C0A8D0BE52C25E025E064
:10006E002402FFE4FD12000374202509F8E6FF12B6
:10007E0002CEE52C25E025E02403FF1202C4052C58
:10008E00E52C7002052BC39403E52B64809480400D
:10009E00A0752B00752C04E52C25E0240CF8E6FA4F
:1000AE0008E6FB7C007D0AFFAE0212011F8E088F50
:1000BE00097C007D0AAF03AE0212011F8C0A8D0B64
:1000CE00E52C25E025E024F2FF7D011200037420CB
:1000DE002509F8E6FF1202CEE52C25E025E024F3F3
:1000EE00FF1202C4052CE52C7002052BC39407E504
:0800FE002B6480948040A022D5
:03001B0002030DD0
:10030D00C0E0C0D0758DF8758B30B295051DE51D1B
:10031D007002051CB4F40DE51CB40108751C0075C4
:09032D001D00C28ED0D0D0E032D8
:0D03E900EFD3940040077E78DEFE1F80F306
:0103F60022E4
:1002360012039E12035E7A0379581202E0120294A8
:10024600120294AE1CAF1D7C007D0A12011F8E089F
:100256008F09AE1CAF1D7C007D0A12011F8C0A8D12
:100266000BE4FD7F0312000374202509F8E6FF1254
:1002760002CE7F041202C4E51D64F47004E51C641A
:0E0286000170BDE51F151F7002151E02024615
:1001B600020236E493A3F8E493A34003F68001F227
:1001C60008DFF48029E493A3F85407240CC8C3334A
:1001D600C4540F4420C8834004F456800146F6DF19
:1001E600E4800B0102040810204080900380E47E26
:1001F600019360BCA3FF543F30E509541FFEE4930E
:10020600A360010ECF54C025E060A840B8E493A3D4
:10021600FAE493A3F8E493A3C8C582C8CAC583CAFF
:10022600F0A3C8C582C8CAC583CADFE9DEE780BEB7
:01039D00005F
:10010600BB010689828A83E0225002E722BBFE02F7
:09011600E32289828A83E493222A
:10011F00C2D5EC30E709B2D5E4C39DFDE49CFCEEFB
:10012F0030E715B2D5E4C39FFFE49EFE120155C31D
:10013F00E49DFDE49CFC800312015530D507C3E418
:06014F009FFFE49EFE226A
:10015500BC000BBE0029EF8DF084FFADF022E4CC8E
:10016500F875F008EF2FFFEE33FEEC33FCEE9DEC57
:10017500984005FCEE9DFE0FD5F0E9E4CEFD22ED9D
:10018500F8F5F0EE8420D21CFEADF075F008EF2FE7
:10019500FFED33FD4007985006D5F0F222C398FDD8
:0501A5000FD5F0EA2275
:00000001FF
